{
  "_format": "hh-sol-artifact-1",
  "contractName": "Whitelist",
  "sourceName": "contracts/Whitelist.sol",
  "abi": [
    {
      "inputs": [],
      "stateMutability": "nonpayable",
      "type": "constructor"
    },
    {
      "anonymous": false,
      "inputs": [
        {
          "indexed": true,
          "internalType": "address",
          "name": "user",
          "type": "address"
        },
        {
          "indexed": false,
          "internalType": "bool",
          "name": "newStatus",
          "type": "bool"
        }
      ],
      "name": "DirectlyWhitelisted",
      "type": "event"
    },
    {
      "anonymous": false,
      "inputs": [
        {
          "indexed": true,
          "internalType": "address",
          "name": "user",
          "type": "address"
        },
        {
          "indexed": true,
          "internalType": "address",
          "name": "referrer",
          "type": "address"
        }
      ],
      "name": "ReferredWhitelisted",
      "type": "event"
    },
    {
      "inputs": [
        {
          "internalType": "address",
          "name": "_address",
          "type": "address"
        },
        {
          "internalType": "bool",
          "name": "_status",
          "type": "bool"
        }
      ],
      "name": "directWhitelist",
      "outputs": [],
      "stateMutability": "nonpayable",
      "type": "function"
    },
    {
      "inputs": [],
      "name": "getAdminAddress",
      "outputs": [
        {
          "internalType": "address",
          "name": "",
          "type": "address"
        }
      ],
      "stateMutability": "view",
      "type": "function"
    },
    {
      "inputs": [],
      "name": "getCooldownTime",
      "outputs": [
        {
          "internalType": "uint256",
          "name": "",
          "type": "uint256"
        }
      ],
      "stateMutability": "view",
      "type": "function"
    },
    {
      "inputs": [],
      "name": "getOwner",
      "outputs": [
        {
          "internalType": "address",
          "name": "",
          "type": "address"
        }
      ],
      "stateMutability": "view",
      "type": "function"
    },
    {
      "inputs": [
        {
          "internalType": "address",
          "name": "_address",
          "type": "address"
        }
      ],
      "name": "getWhitelist",
      "outputs": [
        {
          "components": [
            {
              "internalType": "bool",
              "name": "status",
              "type": "bool"
            },
            {
              "internalType": "address",
              "name": "referrer",
              "type": "address"
            }
          ],
          "internalType": "struct Whitelist.whitelistData",
          "name": "",
          "type": "tuple"
        }
      ],
      "stateMutability": "view",
      "type": "function"
    },
    {
      "inputs": [],
      "name": "getWhitelistCount",
      "outputs": [
        {
          "internalType": "uint256",
          "name": "",
          "type": "uint256"
        }
      ],
      "stateMutability": "view",
      "type": "function"
    },
    {
      "inputs": [
        {
          "internalType": "address",
          "name": "_address",
          "type": "address"
        }
      ],
      "name": "referWhitelist",
      "outputs": [],
      "stateMutability": "nonpayable",
      "type": "function"
    },
    {
      "inputs": [
        {
          "internalType": "address",
          "name": "_address",
          "type": "address"
        }
      ],
      "name": "updateAdmin",
      "outputs": [],
      "stateMutability": "nonpayable",
      "type": "function"
    },
    {
      "inputs": [
        {
          "internalType": "uint256",
          "name": "_cooldownTime",
          "type": "uint256"
        }
      ],
      "name": "updateReferralCooldown",
      "outputs": [],
      "stateMutability": "nonpayable",
      "type": "function"
    }
  ],
  "bytecode": "0x608060405261070860045534801561001657600080fd5b50336000806101000a81548173ffffffffffffffffffffffffffffffffffffffff021916908373ffffffffffffffffffffffffffffffffffffffff160217905550611169806100666000396000f3fe608060405234801561001057600080fd5b50600436106100935760003560e01c80638f2a02b4116100665780638f2a02b4146101205780639cf1423d1461013e578063b2e6b9121461015a578063e2f273bd14610178578063f939e3731461019457610093565b806329e5bd551461009857806330edc0f5146100b45780633edff20f146100e4578063893d20e814610102575b600080fd5b6100b260048036038101906100ad9190610ad4565b6101b0565b005b6100ce60048036038101906100c99190610ad4565b6104ff565b6040516100db9190610b5a565b60405180910390f35b6100ec6105c9565b6040516100f99190610b8e565b60405180910390f35b61010a6105d3565b6040516101179190610bb8565b60405180910390f35b6101286105fc565b6040516101359190610b8e565b60405180910390f35b61015860048036038101906101539190610bff565b610606565b005b610162610819565b60405161016f9190610bb8565b60405180910390f35b610192600480360381019061018d9190610ad4565b610843565b005b6101ae60048036038101906101a99190610c6b565b6109a5565b005b60011515600260003373ffffffffffffffffffffffffffffffffffffffff1673ffffffffffffffffffffffffffffffffffffffff16815260200190815260200160002060000160009054906101000a900460ff16151514610246576040517f08c379a000000000000000000000000000000000000000000000000000000000815260040161023d90610d1b565b60405180910390fd5b60011515600260008373ffffffffffffffffffffffffffffffffffffffff1673ffffffffffffffffffffffffffffffffffffffff16815260200190815260200160002060000160009054906101000a900460ff161515036102dc576040517f08c379a00000000000000000000000000000000000000000000000000000000081526004016102d390610d87565b60405180910390fd5b42600454600560003373ffffffffffffffffffffffffffffffffffffffff1673ffffffffffffffffffffffffffffffffffffffff1681526020019081526020016000205461032a9190610dd6565b1061036a576040517f08c379a000000000000000000000000000000000000000000000000000000000815260040161036190610e56565b60405180910390fd5b6001600260008373ffffffffffffffffffffffffffffffffffffffff1673ffffffffffffffffffffffffffffffffffffffff16815260200190815260200160002060000160006101000a81548160ff02191690831515021790555033600260008373ffffffffffffffffffffffffffffffffffffffff1673ffffffffffffffffffffffffffffffffffffffff16815260200190815260200160002060000160016101000a81548173ffffffffffffffffffffffffffffffffffffffff021916908373ffffffffffffffffffffffffffffffffffffffff1602179055506003600081548092919061045990610e76565b919050555042600560003373ffffffffffffffffffffffffffffffffffffffff1673ffffffffffffffffffffffffffffffffffffffff168152602001908152602001600020819055503373ffffffffffffffffffffffffffffffffffffffff168173ffffffffffffffffffffffffffffffffffffffff167fedc53ad5e1ba02779d5c1a9e1f6baeff54e9be898b07eb60d96fb13c5b67881460405160405180910390a350565b610507610a3f565b600260008373ffffffffffffffffffffffffffffffffffffffff1673ffffffffffffffffffffffffffffffffffffffff1681526020019081526020016000206040518060400160405290816000820160009054906101000a900460ff161515151581526020016000820160019054906101000a900473ffffffffffffffffffffffffffffffffffffffff1673ffffffffffffffffffffffffffffffffffffffff1673ffffffffffffffffffffffffffffffffffffffff16815250509050919050565b6000600354905090565b60008060009054906101000a900473ffffffffffffffffffffffffffffffffffffffff16905090565b6000600454905090565b600160009054906101000a900473ffffffffffffffffffffffffffffffffffffffff1673ffffffffffffffffffffffffffffffffffffffff163373ffffffffffffffffffffffffffffffffffffffff1614610696576040517f08c379a000000000000000000000000000000000000000000000000000000000815260040161068d90610f30565b60405180910390fd5b801515600260008473ffffffffffffffffffffffffffffffffffffffff1673ffffffffffffffffffffffffffffffffffffffff16815260200190815260200160002060000160009054906101000a900460ff1615150361072b576040517f08c379a000000000000000000000000000000000000000000000000000000000815260040161072290610fc2565b60405180910390fd5b80600260008473ffffffffffffffffffffffffffffffffffffffff1673ffffffffffffffffffffffffffffffffffffffff16815260200190815260200160002060000160006101000a81548160ff02191690831515021790555060011515811515036107ae57600360008154809291906107a490610e76565b91905055506107c7565b600360008154809291906107c190610fe2565b91905055505b8173ffffffffffffffffffffffffffffffffffffffff167f1f26ec22a8fd5359d19f52469bc79440333c29e8f5a0d7e6bdb8b4596c48a7cc8260405161080d919061101a565b60405180910390a25050565b6000600160009054906101000a900473ffffffffffffffffffffffffffffffffffffffff16905090565b60008054906101000a900473ffffffffffffffffffffffffffffffffffffffff1673ffffffffffffffffffffffffffffffffffffffff163373ffffffffffffffffffffffffffffffffffffffff16146108d1576040517f08c379a00000000000000000000000000000000000000000000000000000000081526004016108c8906110a7565b60405180910390fd5b600160009054906101000a900473ffffffffffffffffffffffffffffffffffffffff1673ffffffffffffffffffffffffffffffffffffffff163373ffffffffffffffffffffffffffffffffffffffff1603610961576040517f08c379a000000000000000000000000000000000000000000000000000000000815260040161095890611113565b60405180910390fd5b80600160006101000a81548173ffffffffffffffffffffffffffffffffffffffff021916908373ffffffffffffffffffffffffffffffffffffffff16021790555050565b600160009054906101000a900473ffffffffffffffffffffffffffffffffffffffff1673ffffffffffffffffffffffffffffffffffffffff163373ffffffffffffffffffffffffffffffffffffffff1614610a35576040517f08c379a0000000000000000000000000000000000000000000000000000000008152600401610a2c90610f30565b60405180910390fd5b8060048190555050565b6040518060400160405280600015158152602001600073ffffffffffffffffffffffffffffffffffffffff1681525090565b600080fd5b600073ffffffffffffffffffffffffffffffffffffffff82169050919050565b6000610aa182610a76565b9050919050565b610ab181610a96565b8114610abc57600080fd5b50565b600081359050610ace81610aa8565b92915050565b600060208284031215610aea57610ae9610a71565b5b6000610af884828501610abf565b91505092915050565b60008115159050919050565b610b1681610b01565b82525050565b610b2581610a96565b82525050565b604082016000820151610b416000850182610b0d565b506020820151610b546020850182610b1c565b50505050565b6000604082019050610b6f6000830184610b2b565b92915050565b6000819050919050565b610b8881610b75565b82525050565b6000602082019050610ba36000830184610b7f565b92915050565b610bb281610a96565b82525050565b6000602082019050610bcd6000830184610ba9565b92915050565b610bdc81610b01565b8114610be757600080fd5b50565b600081359050610bf981610bd3565b92915050565b60008060408385031215610c1657610c15610a71565b5b6000610c2485828601610abf565b9250506020610c3585828601610bea565b9150509250929050565b610c4881610b75565b8114610c5357600080fd5b50565b600081359050610c6581610c3f565b92915050565b600060208284031215610c8157610c80610a71565b5b6000610c8f84828501610c56565b91505092915050565b600082825260208201905092915050565b7f4f6e6c792077686974656c69737465642075736572732063616e20706572666f60008201527f726d207468697320616374696f6e210000000000000000000000000000000000602082015250565b6000610d05602f83610c98565b9150610d1082610ca9565b604082019050919050565b60006020820190508181036000830152610d3481610cf8565b9050919050565b7f54686973206164647265737320697320616c7265616479207570646174656400600082015250565b6000610d71601f83610c98565b9150610d7c82610d3b565b602082019050919050565b60006020820190508181036000830152610da081610d64565b9050919050565b7f4e487b7100000000000000000000000000000000000000000000000000000000600052601160045260246000fd5b6000610de182610b75565b9150610dec83610b75565b9250828201905080821115610e0457610e03610da7565b5b92915050565b7f5265666572726572206973206f6e20636f6f6c646f776e000000000000000000600082015250565b6000610e40601783610c98565b9150610e4b82610e0a565b602082019050919050565b60006020820190508181036000830152610e6f81610e33565b9050919050565b6000610e8182610b75565b91507fffffffffffffffffffffffffffffffffffffffffffffffffffffffffffffffff8203610eb357610eb2610da7565b5b600182019050919050565b7f4f6e6c792061646d696e206f66207468697320636f6e74726163742063616e2060008201527f706572666f726d207468697320616374696f6e21000000000000000000000000602082015250565b6000610f1a603483610c98565b9150610f2582610ebe565b604082019050919050565b60006020820190508181036000830152610f4981610f0d565b9050919050565b7f57686974656c6973742053746174757320697320616c7265616479207570646160008201527f7465640000000000000000000000000000000000000000000000000000000000602082015250565b6000610fac602383610c98565b9150610fb782610f50565b604082019050919050565b60006020820190508181036000830152610fdb81610f9f565b9050919050565b6000610fed82610b75565b91506000820361100057610fff610da7565b5b600182039050919050565b61101481610b01565b82525050565b600060208201905061102f600083018461100b565b92915050565b7f4f6e6c79204f776e6572206f66207468697320636f6e74726163742063616e2060008201527f706572666f726d207468697320616374696f6e21000000000000000000000000602082015250565b6000611091603483610c98565b915061109c82611035565b604082019050919050565b600060208201905081810360008301526110c081611084565b9050919050565b7f61646d696e206164647265737320616c72656164792075706461746564000000600082015250565b60006110fd601d83610c98565b9150611108826110c7565b602082019050919050565b6000602082019050818103600083015261112c816110f0565b905091905056fea2646970667358221220e20ee67db26622788fc52bec5d925b414b7ba88949b3e2df1bf317e14663ce4264736f6c63430008140033",
  "linkReferences": {},
  "deployedLinkReferences": {}
}